S012000046696E616C5F436F64652E737265634E
S11300000C942B000C9453000C9453000C94530048
S11300100C9453000C9453000C9453000C94530010
S11300200C9453000C9453000C9453000C94530000
S11300300C9453000C9453000C9453000C945300F0
S11300400C9453000C9453000C9453000C945300E0
S11300500C945300BA0911241FBECFE5D8E0DEBFCB
S1130060CDBF12E0A0E6B0E0EEEDF9E102C00590EC
S11300700D92AA36B107D9F725E0AAE6B2E001C08D
S11300801D92A132B207E1F710E0CBE2D0E004C048
S11300902197FE010E94280CCA32D107C9F70E9499
S11300A0DF040C94ED0C0C940000DD9A83EC99E0D1
S11300B00197F1F700C0000098E088E10FB6F894CA
S11300C0A89581BD0FBE91BDFFCF87B3806A87BB62
S11300D081E58DB908958FB9779BFECF0895CF93AD
S11300E0DF93D82FC62FC4980E946B008C2F0E94D8
S11300F06B008D2F0E946B008C2F0E946B008D2F44
S11301000E946B008C2F0E946B008D2F0E946B004D
S11301108C2F0E946B00C49ADF91CF910895CF93E6
S1130120C62F0E946B008C2F0E946B00CF91089504
S1130130C4980895C49A089560E089E00E946F000D
S11301406FE08AE00E946F0067E08BE00E946F001E
S113015061E08CE00E946F0008958FEF81BB87BB44
S113016084EF8ABB8CEF81BB0895CF93DF9380B378
S113017091E0382F317080FF90E09093E40320B336
S113018081E0622F627021FF80E08093E30320917D
S1130190E603211149C0332309F446C02091EB033F
S11301A03091EC03232B49F0E7EEF3E021E030E05B
S11301B042855385452B91F502C020E030E0F901DA
S11301C0EE0FFF1FE20FF31FEE0FFF1FE951FC4F6D
S11301D04FE050E051834083AFE0B4E012964D917C
S11301E05C911397552314F44F5F5F4F55954795D2
S11301F00D90BC91A02DED01C41BD50BD383C283FC
S1130200F901EE0FFF1FE20FF31FEE0FFF1FE9517D
S1130210FC4F21E030E03583248306C02F5F3F4F3D
S113022036962530310521F62091E503211147C08A
S1130230662309F444C02091EB033091EC03232B93
S113024049F0E7EEF3E021E030E042855385452BA9
S113025081F502C020E030E0F901EE0FFF1FE20F4C
S1130260F31FEE0FFF1FE951FC4F4FE050E05183A5
S113027040834091110450911204552314F44F5FAC
S11302805F4F5595479560910F0470911004460F88
S1130290571F53834283F901EE0FFF1FE20FF31F31
S11302A0EE0FFF1FE951FC4F21E030E0358324833A
S11302B006C02F5F3F4F36962530310531F69093B7
S11302C0E6038093E50340911D0550911E05E7EE7A
S11302D0F3E025E034E084819581892B51F180811C
S11302E0918101979183808399231CF41582148250
S11302F020C062817381DC01A295B295B07FBA27D8
S1130300A07FBA27A35EBB4FA60FB71FAC91AA2349
S113031081F082959295907F9827807F9827835EBD
S11303209B4FDC01A60FB71F1C9241505109158247
S113033014823696E217F30771F650931E05409324
S11303401D05DF91CF9108955F926F927F928F92F6
S11303509F92AF92BF92CF92DF92EF92FF920F9350
S11303601F93CF93DF93562E00916A0210916B0274
S11303701016110674F4E0906C02F0906D02482F90
S1130380592FC2E7D2E060E070E01E141F044CF065
S113039012C060906E0270906F0216141704A4F0DD
S11303A079C09701240F351FDE01FA0181918D93E5
S11303B0E217F307D9F76F5F7F4F405F5F4F619696
S11303C06017710711F7E5CFC0917002D0917102E7
S11303D0A3E9B3E062E772E04301880C991CC4010D
S11303E08D569C4F6C017D0111961C921E921C1619
S11303F01D06B4F49E0121503109FB0140E050E098
S1130400819190E0022E02C0880F991F0A94E2F7AE
S1130410482B592B2150310998F7F7015183408318
S113042012966F5E7F4FAC15BD05E9F6EAE6F2E081
S1130430C280D380A680B7807601EA18FB08A7EAB9
S1130440B3E0B7016E587D4FC40189559C4F4C01F0
S1130450ED0111961C921E92EC14FD04ACF495016E
S113046021503109FB0140E050E0819190E0022EDF
S113047002C0880F991F0A94E2F7482B592B215088
S1130480310998F75983488312966F5E7F4FA815F8
S1130490B905F1F6C80186199709801791070CF080
S11304A076C0E0907002F0907102DC01A01BB10BE9
S11304B0A60DB71D4D01880C991CE401C554DC4FF1
S11304C021E1289F5001299FB00C1124B5016E58D9
S11304D07D4F660C771CF301E554FC4F6F01DE0180
S11304E0198218821E141F04ACF49701215031099B
S11304F0FB0140E050E0819190E0022E02C0880FA1
S1130500991F0A94E2F7482B592B2150310998F787
S11305104D935C9322966F5E7F4FCC15DD05F9F603
S1130520EAE6F2E0E280F380C680D78087010C1906
S11305301D09D401A153BC4FB8016A0D7B1D6E582F
S11305407D4FF301E153FC4F5F01ED0111961C92C5
S11305501E920E151F05ACF4960121503109FB01C2
S113056040E050E0819190E0022E02C0880F991F74
S11305700A94E2F7482B592B2150310998F75983F3
S1130580488312966F5E7F4FAA15BB05F1F603E907
S113059013E0C1E00E949800F80164AD8C2F0E9422
S11305A08F00F80160A58C2F0E948F00F8016489E8
S11305B08C2F0E948F00F80160810E5F1F4F8C2FDB
S11305C00E948F000E949A00CF5FC93019F755200E
S11305D019F0CC9BFECF3CC0FFE32DE083E0F1504B
S11305E020408040E1F700C0000032C060E08C2F62
S11305F00E946F00CF5FC930C9F79FE9E6E8F1E0D8
S11306009150E040F040E1F700C00000A0916A0280
S1130610B0916B021A161B06ECF460916C02709197
S11306206D0222E732E040E050E01616170644F46B
S1130630CB01820F931FF90111928E179F07E1F7E7
S11306404F5F5F4F2F5E3F4F4A175B0771F702C042
S1130650C1E0CCCFDF91CF911F910F91FF90EF902C
S1130660DF90CF90BF90AF909F908F907F906F90CE
S11306705F9008958F929F92AF92BF92DF92EF9214
S1130680FF920F931F93CF93DF93C0911F05D091D7
S11306902005CE0101969093200580931F0520919B
S11306A066003091670033230CF42BC122503109CA
S11306B0309367002093660010921E0510921D056A
S11306C081309105C9F500911D0510911E050F2E6D
S11306D0FDE18F2EF4E09F2EF02DA12CB12C0F2ED6
S11306E0F3E0EF2EF12CF02D41E09501E501609649
S11306F0F401822F932F20FF05C0B7010E94000C44
S1130700892B11F4108203C040830F5F1F4F2F5FAA
S11307103F4F31962C173D0761F72FEFA21AB20A0B
S113072080E1880E911C98E0A916B104F1F61093AB
S11307301E0500931D05BAC082309105D9F540917C
S11307401D0550911E050F2EFDE1EF2EF4E0FF2E46
S1130750F02D20E030E0A1E00FE010E0C0E1D0E0B7
S1130760F70180E090E0281739073CF0BE01681BD0
S1130770790B261737073CF008C0B801681B790BC2
S11307802617370714F0108203C0A0834F5F5F4F12
S1130790019631968031910531F72F5F3F4F80E10B
S11307A0E80EF11C28303105D9F650931E0540930C
S11307B01D057CC0039721F540911D0550911E0530
S11307C0CDE1D4E0A0E0B0E061E0CD019D01205F87
S11307D03F4FFE0180FD04C060834F5F5F4F01C047
S11307E010820196319628173907A1F71196609661
S11307F0A830B10551F750931E0540931D0556C00E
S1130800BE0163507109072E000C880B990B0E94DE
S1130810DE0A2DEC3CEC4CEC5DE30E946F0B20E017
S113082030E040E05FE30E94FE094B015C01269644
S11308301C161D06DCF5CDE1D4E0E12CF12CDD2401
S1130840D3948E01005F1F4F0E947A0CBC01990F54
S1130850880B990B0E94DE0A20E03EEF4FEF56E42E
S11308600E946A0A9B01AC01C501B4010E946A0B93
S113087088235CF0D88280911D0590911E05019615
S113088090931E0580931D0501C0188221960C17B4
S11308901D07D1F69FEFE91AF90AE80180911F05B7
S11308A0909120050596E816F9065CF2E5E1F4E07E
S11308B02081318182819381820F931F99230CF4CB
S11308C00196959587959093100480930F04E7E023
S11308D0F4E020911B0430911C0431832083938322
S11308E082838FEF9FEF95838483178216822FE98B
S11308F086E891E0215080409040E1F700C000007C
S113090009C010921E0510921D058130910509F051
S113091013CFD9CEDF91CF911F910F91FF90EF901C
S1130920DF90BF90AF909F908F900895CF93DF9307
S1130930CDB7DEB7DA950FB6F894DEBF0FBECDBFE4
S11309400E943A03E7EEF3E01582148213861286BE
S1130950118A108A178A168A158E148E80E0EAE6A8
S1130960F0E0DE01119601900D928A95E1F761E0C5
S1130970CE0101960E94A401D3950FB6F894DEBF70
S11309800FBECDBFDF91CF910895CF93DF93CDB745
S1130990DEB7DA950FB6F894DEBF0FBECDBF80E0A8
S11309A0EAE6F1E0DE01119601900D928A95E1F7F5
S11309B061E0CE0101960E94A4010E945500CF93EC
S11309C0DF93CDB7DEB72A970FB6F894DEBF0FBE1C
S11309D0CDBF0E94AD000E946500BC9AC49A0E94DB
S11309E09C000E9496041B821A8290E0712C612C58
S11309F022242394312C0F2EFAE64F2EF2E05F2EA0
S1130A00F02D01C0998139B329B389B32982482FC4
S1130A10407184FF3982911105C0442319F04E813D
S1130A2042254E835E81552309F440C1D2011496B8
S1130A308D909C901597181419040CF070C016969C
S1130A40ED91FC911797A3E9B3E062E772E05401DA
S1130A50AA0CBB1C95012D563C4F7901FD83EC83F8
S1130A608D0111961C921E924C815D8114161506FF
S1130A70B4F49A0121503109FB0140E050E0819126
S1130A8090E0022E02C0880F991F0A94E2F7482BC7
S1130A90592B2150310998F7F8015183408312965C
S1130AA06F5E7F4FAE15BF05D9F6D2011296ED9059
S1130AB0FC9013971696CD90DC90179787010C192C
S1130AC01D09A7EAB3E0B8016E587D4FF501E95559
S1130AD0FC4F5F01BD83AC8311961C921E920E15D0
S1130AE01F05BCF4960121503109FB0140E050E0A0
S1130AF0819190E0022E02C0880F991F0A94E2F7B8
S1130B00482B592B2150310998F7EC81FD815183F1
S1130B10408312966F5E7F4FAA15BB05D9F6D201AA
S1130B202D913C911197C90188199909821793074E
S1130B300CF085C01696ED91FC911797DC01A21B71
S1130B40B30BA80DB91D9D01220F331F3D832C83C8
S1130B50D901A554BC4F31E1389F5001399FB00CE5
S1130B601124B5016E587D4F880C991CA40145547D
S1130B705C4F7A01FA87E9878D0111961C921E92C7
S1130B8089859A8518161906B4F49C0121503109F7
S1130B90FB0140E050E0819190E0022E02C0880FFA
S1130BA0991F0A94E2F7482B592B2150310998F7E1
S1130BB0F8015183408312966F5E7F4FAE15BF05D7
S1130BC0D9F6D2011296ED90FC9013971696CD901B
S1130BD0DC90179787010C191D09AC81BD81A153C5
S1130BE0BC4FB8016A0D7B1D6E587D4FF401E15373
S1130BF0FC4F5F01BD83AC8311961C921E920E15AF
S1130C001F05BCF4960121503109FB0140E050E07E
S1130C10819190E0022E02C0880F991F0A94E2F796
S1130C20482B592B2150310998F7EC81FD815183D0
S1130C30408312966F5E7F4FAA15BB05D9F623E950
S1130C4033E011E03D832C830E949800EC80FD800A
S1130C50D701DC966C91812F0E948F00EC81FD817D
S1130C6060A5812F0E948F00AC81BD8154966C9148
S1130C70812F0E948F00F7016081EC81FD81329603
S1130C80FD83EC83812F0E948F000E949A001F5FD6
S1130C901930D1F6F1E0FC83632D8C810E946F0042
S1130CA02C812F5F2C832930B9F7ACCE31703C8373
S1130CB061101FC03323E9F0AFE0B4E04D915C91C3
S1130CC0809111049091120499230CF40196959546
S1130CD08795BA01681B790BE5E1F4E08081918185
S1130CE08617970734F441505109AFE0B4E04D93AF
S1130CF05C9322702F8371101EC02223E1F0EFE079
S1130D00F4E020813181809111049091120499239F
S1130D100CF4019695958795820F931F40911704C3
S1130D20509118048417950734F42F5F3F4FAFE0B8
S1130D30B4E02D933C93EA81FB813196FB83EA83F3
S1130D408091660090916700E817F9070CF421C1BF
S1130D5060910B0470910C04A7E0B4E02D913C91D8
S1130D601197260F371F2D933C9340910D045091FA
S1130D700E048091090490910A04840F951F9093A6
S1130D800A0480930904E0911904F0911A04E2170B
S1130D90F3073CF071956195710970930C046093AD
S1130DA00B04E5E1F4E060817181681779073CF494
S1130DB06091170470911804861797073CF05195B9
S1130DC04195510950930E0440930D0440910B0436
S1130DD050910C04420F531F60911304709114043A
S1130DE04617570709F044C0AFE0B4E06D917C9119
S1130DF04091110450911204552314F44F5F5F4F36
S1130E0055954795FB01E41BF50B8E179F0784F15D
S1130E10460F571F481759075CF1861797075CF46C
S1130E20EFEFFFEFF0930C04E0930B04F0930E0448
S1130E30E0930D041DC08617970759F44FEF5FEF39
S1130E4050930C0440930B0410920E0410920D0462
S1130E500FC06817790764F4AFEFBFEFB0930C04C9
S1130E60A0930B04E1E0F0E0F0930E04E0930D0492
S1130E7040910B0450910C04240F351F203131058F
S1130E800CF047C022953295307F3227207F3227DD
S1130E90235E3B4F40910D0450910E04240F351FE7
S1130EA0F901E80FF91F8081882399F1DA9A2091DA
S1130EB00B0430910C04A7E0B4E08D919C91820F57
S1130EC0931F82959295907F9827807F9827835EC1
S1130ED09B4FE0910904F0910A048E0F9F1FFC01BF
S1130EE0E40FF51F108280911D0590911E05019756
S1130EF090931E0580931D053195219531093093FA
S1130F000C0420930B04E1EEF4E03197F1F700C0F8
S1130F10000080911D0590911E05892B11F40E94FB
S1130F203A0380911B0490911C040596A7E0B4E059
S1130F302D913C911197281739074CF18091680045
S1130F4090916900009709F101979093690080934B
S1130F506800DB9A80911B0490911C048D939C93F0
S1130F60EFE0F4E08081918190930A048093090476
S1130F702FEF3FEF30930C0420930B0410920E04D8
S1130F8010920D041B821A8204C00E94C5041B82A5
S1130F901A828091050490910604019690930604A8
S1130FA080930504209164003091650082179307B3
S1130FB034F00E94B5001092060410920504D20188
S1130FC08D909C9011971814190424F51296ED91A4
S1130FD0FC9113972DE134E062E772E040E050E0C9
S1130FE0FA87E98789859A851816190654F48C01BD
S1130FF0020F131FDB01F90181918D93E017F107B3
S1131000D9F74F5F5F4F205F3F4F6F5E7F4F4815AB
S1131010590541F7EFE0F4E04081518180911104DA
S11310209091120499230CF401969C01359527950F
S1131030CA01821B930B240F351F281739079CF014
S1131040409113045091140461E1649FF001659F81
S1131050F00D1124E80FF91FEE58FD4F219201966F
S113106028173907DCF7A7E0B4E08D919C91209113
S11310701B0430911C04281739070CF478C1B1E122
S1131080B89FF001B99FF00D1124E659FD4F8091EE
S1131090090490910A04E80FF91F208668C1F2013F
S11310A0648075801614170404F18DC084819581C1
S11310B0892BA1F080819181992384F021E1289FDB
S11310C0D001299FB00D11249D0126593D4F8281E5
S11310D09381D901A80FB91F18962C92369645E032
S11310E054E04E175F0711F7DACFA681B781BA87AC
S11310F0A987A3E9B3E062E772E05301AA0CBB1C21
S1131100F501ED56FC4F7F018D0111961C921E9244
S113111049855A8514161506B4F49A0121503109EB
S1131120FB0140E050E0819190E0022E02C0880F64
S1131130991F0A94E2F7482B592B2150310998F74B
S1131140F8015183408312966F5E7F4FAE15BF0541
S1131150D9F6D2011296ED90FC9013971696CD9085
S1131160DC90179787010C191D09A7EAB3E0B801B1
S11311706E587D4FF501E955FC4F5F01BA87A98789
S113118011961C921E920E151F05BCF49601215057
S11311903109FB0140E050E0819190E0022E02C051
S11311A0880F991F0A94E2F7482B592B21503109D3
S11311B098F7E985FA855183408312966F5E7F4FD5
S11311C0AA15BB05D9F6C40186199709881599058E
S11311D00CF083C0D20116960D90BC91A02DBA8755
S11311E0A987DC01A819B909A60DB71D5D01AA0CD0
S11311F0BB1CD501A554BC4FE1E1E89F4001E99F28
S1131200900C1124B4016E587D4F660C771C930129
S113121025543C4F79018D0111961C921E928985AB
S11312209A8518161906B4F49C0121503109FB0162
S113123040E050E0819190E0022E02C0880F991F97
S11312400A94E2F7482B592B2150310998F7F801F9
S11312505183408312966F5E7F4FAE15BF05D9F65A
S1131260D2011296ED90FC9013971696CD90DC90D7
S1131270179787010C191D09D501A153BC4FB8015B
S1131280680D791D6E587D4FF301E153FC4F5F01EA
S1131290BA87A98711961C921E920E151F05BCF4DD
S11312A0960121503109FB0140E050E0819190E02A
S11312B0022E02C0880F991F0A94E2F7482B592B7B
S11312C02150310998F7E985FA85518340831296B4
S11312D06F5E7F4FAA15BB05D9F623E933E011E011
S11312E03A8729870E949800E984FA84D701DC961A
S11312F06C91812F0E948F00E985FA8560A5812F6A
S11313000E948F00A985BA8554966C91812F0E9402
S11313108F00F7016081E985FA853296FA87E987BB
S1131320812F0E948F000E949A001F5F1930D1F60E
S1131330F1E0F887632D88850E946F0028852F5F70
S113134028872930B9F7622C3C81311101C0632C04
S1131350722C4F81411101C0732CDA98DB98DD980F
S113136081EE94E00197F1F700C000004BCBE7EE6B
S1131370F3E09CCEE5E1F4E0118210828FE090E08E
S1131380938382831582148297838683EFE0F4E04B
S113139025E030E0338322839583848327E030E0A3
S11313A031832083E7E0F4E09183808333832283D5
S11313B08FEF9FEF9583848317821682EAE6F2E02B
S11313C080E190E0918380839383828388E090E03E
S11313D0958384839783868322E732E042E853E04F
S11313E0C9014096F9011192E817F907E1F72F5E58
S11313F03F4F24173507A1F708955058BB27AA2754
S11314000E94150A0C94300B0E94220B38F00E94A3
S1131410290B20F039F49F3F19F426F40C941F0B88
S11314200EF4E095E7FB0C94190BE92F0E94410B95
S113143058F3BA17620773078407950720F079F405
S1131440A6F50C94630B0EF4E0950B2EBA2FA02D89
S11314500B01B90190010C01CA01A0011124FF275D
S1131460591B99F0593F50F4503E68F11A16F04058
S1131470A22F232F342F4427585FF3CF4695379557
S11314802795A795F0405395C9F77EF41F16BA0B1C
S1131490620B730B840BBAF09150A1F0FF0FBB1FCA
S11314A0661F771F881FC2F70EC0BA0F621F731F13
S11314B0841F48F4879577956795B795F7959E3F70
S11314C008F0B0CF9395880F08F09927EE0F979501
S11314D0879508950E947E0A0C94300B0E94290B74
S11314E058F00E94220B40F029F45F3F29F00C943D
S11314F0190B51110C94640B0C941F0B0E94410B9B
S113150068F39923B1F3552391F3951B550BBB272E
S1131510AA2762177307840738F09F5F5F4F220F73
S1131520331F441FAA1FA9F335D00E2E3AF0E0E86A
S113153032D091505040E695001CCAF72BD0FE2FB4
S113154029D0660F771F881FBB1F26173707480748
S1131550AB07B0E809F0BB0B802DBF01FF27935800
S11315605F4F3AF09E3F510578F00C94190B0C94A0
S1131570640B5F3FE4F3983ED4F3869577956795C3
S1131580B795F7959F5FC9F7880F911D9695879535
S113159097F90895E1E0660F771F881FBB1F621754
S11315A073078407BA0720F0621B730B840BBA0B12
S11315B0EE1F88F7E0950895E89409C097FB3EF480
S11315C090958095709561957F4F8F4F9F4F99238C
S11315D0A9F0F92F96E9BB279395F695879577950A
S11315E06795B795F111F8CFFAF4BB0F11F460FFCA
S11315F01BC06F5F7F4F8F4F9F4F16C0882311F022
S113160096E911C0772321F09EE8872F762F05C035
S1131610662371F096E8862F70E060E02AF09A95D0
S1131620660F771F881FDAF7880F9695879597F9C5
S1131630089597F99F6780E870E060E008959FEF50
S113164080EC089500240A94161617061806090655
S1131650089500240A941216130614060506089524
S1131660092E0394000C11F4882352F0BB0F40F4AC
S1131670BF2B11F460FF04C06F5F7F4F8F4F9F4FEC
S1131680089557FD9058440F551F59F05F3F71F06E
S11316904795880F97FB991F61F09F3F79F08795D5
S11316A00895121613061406551FF2CF4695F1DF5E
S11316B008C0161617061806991FF1CF86957105EE
S11316C0610508940895E894BB2766277727CB0122
S11316D097F908950E94DC0B08F48FEF08950E9497
S11316E0820B0C94300B0E94220B38F00E94290BC1
S11316F020F0952311F00C94190B0C941F0B11245A
S11317000C94640B0E94410B70F3959FC1F3950FE9
S113171050E0551F629FF001729FBB27F00DB11D71
S1131720639FAA27F00DB11DAA1F649F6627B00D01
S1131730A11D661F829F2227B00DA11D621F739FEA
S1131740B00DA11D621F839FA00D611D221F749FF8
S11317503327A00D611D231F849F600D211D822F3F
S1131760762F6A2F11249F5750409AF0F1F0882366
S11317704AF0EE0FFF1FBB1F661F771F881F915093
S11317805040A9F79E3F510580F00C94190B0C941E
S1131790640B5F3FE4F3983ED4F3869577956795A1
S11317A0B795F795E7959F5FC1F7FE2B880F911DBD
S11317B09695879597F90895990F0008550FAA0BE8
S11317C0E0E8FEEF16161706E807F907C0F0121650
S11317D01306E407F50798F0621B730B840B950B53
S11317E039F40A2661F0232B242B252B21F40895A8
S11317F00A2609F4A140A6958FEF811D811D089545
S113180097FB072E16F4009407D077FD09D00E94A9
S1131810140C07FC05D03EF4909581959F4F0895D4
S1131820709561957F4F0895AA1BBB1B51E107C0BA
S1131830AA1FBB1FA617B70710F0A61BB70B881F5C
S1131840991F5A95A9F780959095BC01CD010895EB
S1131850EE0FFF1F0590F491E02D09948F929F9253
S1131860AF92BF92CF92DF92EF92FF92CF93DF932A
S1131870EC01688179818A819B81611571058105FB
S1131880910521F464E279ED8BE597E02DE133EFE6
S113189041E050E00E948A0C49015A019B01AC01CD
S11318A0A7EAB1E40E94A90C6B017C01ACEEB4EF91
S11318B0A50194010E94B70CDC01CB018C0D9D1D88
S11318C0AE1DBF1DB7FF03C00197A109B0488883AF
S11318D09983AA83BB839F77DF91CF91FF90EF9089
S11318E0DF90CF90BF90AF909F908F9008950E940B
S11318F02E0C089580E690E00E942E0C0895A0E03E
S1131900B0E08093600090936100A0936200B09374
S113191063000895052E97FB1EF400940E94A10C09
S113192057FD07D00E94BC0C07FC03D04EF40C9466
S1131930A10C50954095309521953F4F4F4F5F4FE7
S1131940089590958095709561957F4F8F4F9F4F27
S113195008950E94DE0CA59F900DB49F900DA49F46
S1131960800D911D11240895B7FF0C94A90C0E94B9
S1131970A90C821B930B0895A1E21A2EAA1BBB1B70
S1131980FD010DC0AA1FBB1FEE1FFF1FA217B30747
S1131990E407F50720F0A21BB30BE40BF50B661F5D
S11319A0771F881F991F1A9469F760957095809521
S11319B090959B01AC01BD01CF010895A29FB00198
S11319C0B39FC001A39F700D811D1124911DB29F6F
S11119D0700D811D1124911D0895F894FFCF10
S11319DE01000000030008000300000101010001E2
S11319EE01010100010101010100010000000001DB
S11319FE00000000000001000000010001010001D0
S1131A0E01010000000001000000010000010001BE
S1131A1E00000000000001000000000101010001AF
S1131A2E01010100000001000000000000000000A0
S1131A3E000000000000000000000101010100018F
S1131A4E010101000101010101000100000000017A
S1131A5E000000000000010000000101010100016E
S1131A6E010100000000010000000000000100015F
S1131A7E000000000000010000000101010100014E
S1131A8E0101010000000100000000000000000040
S1131A9E0000000000000000000000000000010132
S1131AAE010000010101000000000000000100001F
S1131ABE0000010000000100000000000001000110
S1131ACE01000100000001000000000000000101FF
S1131ADE01000001010100000000000000000000F0
S1131AEE00000000000000000000000101000100E1
S1131AFE00010000000100010101010000010001CC
S1131B0E00010100010100010000010000010101BA
S1131B1E00010001000100010100010001010001AA
S1131B2E000100000001000100000001010100019C
S1131B3E000100000001000101010000000000008E
S1131B4E0000000000000000000000000000000083
S1131B5E0000000000000000000000000000000073
S1131B6E0000000000000000000000010100000160
S1131B7E0000010101010001010101000001000149
S1131B8E000001010000000100010100000100013C
S1131B9E000001010100000101010100000100012A
S1131BAE000001010000000101000001010000001D
S1131BBE010100010101000100010000000000000C
S1131BCE0000000000000000000000000000000003
S10D1BDE00000000000000000000F9
S9030000FC
