S01200004C45445F6472697665722E7372656352
S11300000C942B000C9408050C9453000C9453008E
S11300100C9453000C9453000C9453000C94530010
S11300200C9453000C9453000C9453000C94530000
S11300300C9453000C9453000C9453000C945300F0
S11300400C9453000C9453000C9453000C945300E0
S11300500C945300330511241FBECFE5D8E0DEBF56
S1130060CDBF12E0A0E6B0E0EEEFFAE002C00590EA
S11300700D92A236B107D9F725E0A2E6B2E001C09D
S11300801D92A833B207E1F710E0CBE2D0E004C040
S11300902197FE010E947705CA32D107C9F70E9451
S11300A073010C947D050C94000087B3806A87BBB0
S11300B081E58DB908958FB9779BFECF0895CF93CD
S11300C0DF93D82FC62FC4980E945B008C2F0E9408
S11300D05B008D2F0E945B008C2F0E945B008D2F94
S11300E00E945B008C2F0E945B008D2F0E945B009E
S11300F08C2F0E945B00C49ADF91CF910895CF9317
S1130100C62FC4980E945B008C2F0E945B00CF9185
S11301100895C49A089560E089E00E945F006FE04A
S11301208AE00E945F0067E08BE00E945F0061E06C
S11301308CE00E945F0008958FEF81BB87BB8CEF3A
S11301408ABB81B38C7F81BB82B3836082BB0895F9
S1130150CF93DF9380B391E0382F317080FF90E02C
S11301609093050520B381E0622F627021FF80E047
S11301708093040520916100211138C03323B1F12B
S113018020910A0530910B05232B49F0E6E0F5E0B8
S113019021E030E042855385452B11F502C020E073
S11301A030E0F901EE0FFF1FDF01A20FB31FAA0F0A
S11301B0BB1FAA5FBA4F4FE050E011965C934E9379
S11301C040912605509127054250510913965C939E
S11301D04E931297FD0121E030E03583248306C05D
S11301E02F5F3F4F369625303105A1F620916000F0
S11301F0211138C06623B1F120910A0530910B0515
S1130200232B49F0E6E0F5E021E030E04285538518
S1130210452B11F502C020E030E0F901EE0FFF1F7D
S1130220DF01A20FB31FAA0FBB1FAA5FBA4F4FE093
S113023050E011965C934E9340912605509127050A
S11302404E5F5F4F13965C934E931297FD0121E02E
S113025030E03583248306C02F5F3F4F3696253028
S11302603105A1F69093610080936000E6E0F5E02B
S113027024E235E084819581892B71F1808191811B
S113028001979183808399231CF41582148224C0DE
S113029042815381DC01A295B295B07FBA27A07F39
S11302A0BA27A40FB51FAA0FBB1FAE59BF4F6D913C
S11302B07C91672B89F082959295907F9827807F17
S11302C09827840F951FDC01AA0FBB1FAE59BF4F9F
S11302D01D921C92158214823696E217F30751F68A
S11302E0DF91CF910895CF93DF93CDB7DEB72A97EF
S11302F00FB6F894DEBF0FBECDBF0E949C000E94D3
S11303005500BC9AC49A0E948B008BB780648BBF43
S113031085B7816085BF7894E6E0F5E015821482A4
S113032013861286118A108A178A168A158E148EDD
S11303301C821B8220E090E022242394312C0F2E77
S1130340F4E24F2EF5E05F2EF02D89B331E03F83C8
S1130350482F417080FF1F8289B361E06887382F7E
S1130360327081FF188691111FC04423E9F0A6E280
S1130370B5E04D915C9180912805909129059923D0
S11303800CF4019695958795BA01681B790BECE2FC
S1130390F5E0808191818617970734F44150510923
S11303A0A6E2B5E04D935C9321111EC03323E1F026
S11303B0E6E2F5E0208131818091280590912905BC
S11303C099230CF4019695958795820F931F40917C
S11303D02E0550912F058417950734F42F5F3F4F56
S11303E0A6E2B5E02D933C93EB81FC813196FC832E
S11303F0EB8335970CF402C1ACEFB4E02D913C9142
S113040011978091000590910105820F931F8D93A0
S11304109C9340910205509103052091FE04309174
S1130420FF04240F351F3093FF042093FE046091D2
S11304303005709131056817790724F03092010571
S113044020920005ECE2F5E0608171816217730788
S11304503CF460912E0570912F05261737073CF068
S113046051954195510950930305409302052091FC
S1130470320530913305A901495F5F4F8417950711
S1130480C4F02F5F3F4FACEFB4E02D933C93E6E212
S1130490F5E0808191819093FF048093FE042FEF17
S11304A03FEF30930105209300051092030510924D
S11304B00205ACEFB4E02D913C9180910005909140
S11304C00105820F931F40912A0550912B05841733
S11304D0950709F045C06091FE047091FF04E6E2BF
S11304E0F5E0408151818091280590912905992357
S11304F00CF4019695958795FA01E81BF90B6E1794
S11305007F0774F1840F951F861797074CF16417C2
S113051075075CF48FEF9FEF9093010580930005BE
S113052090930305809302051BC06417750759F463
S1130530AFEFBFEFB0930105A09300051092030540
S1130540109202050DC04617570754F4EFEFFFEF62
S1130550F0930105E0930005309203052092020513
S11305608091000590910105280F391F2031310534
S113057008F03FC04091FE045091FF0480910205B1
S113058090910305840F951FF901E295F295F07F90
S1130590FE27E07FFE27E80FF91FEE0FFF1FEE593D
S11305A0FF4F40815181452B39F1DA9AF901E295E7
S11305B0F295F07FFE27E07FFE27E80FF91FEE0F8C
S11305C0FF1FEE59FF4F1182108280910005909118
S11305D001059195819591099093010580930005FA
S11305E081EE94E00197F1F700C000001C821B82A9
S11305F005C01C821B8202C01C821B8280912405C0
S113060090912505019690932505809324050397E1
S113061034F00E94A8001092250510922405A2E649
S1130620B2E08D909C90181419045CF5009164025A
S11306301091650242E650E0EAE6F2E07801EE0C41
S1130640FF1C60E070E0FA83E983101611066CF475
S11306509A012E0D3F1DA981BA81FA0181919191D0
S11306608D939D93E217F307C9F76F5F7F4F405E49
S11306705F4FE981FA81B296FA83E98368157905B7
S113068021F7A6E2B5E04D915C9180912805909107
S1130690290599230CF401969C0135952795CA01E7
S11306A0821B930B240F351F28173907BCF0409188
S11306B02A0550912B05B1E1B49FF001B59FF00DCF
S11306C011243496E80FF91FEE0FFF1FEE59FD4F6A
S11306D021923192019628173907D4F7ECEFF4E010
S11306E08081918120913205309133052817390793
S11306F00CF48BC121E1289FF001299FF00D1124F6
S11307008091FE049091FF04E80FF91FEE0FFF1F84
S1130710E659FD4F3182208278C160906602709064
S1130720670216141704FCF08FC084819581892B0D
S1130730A9F08081918199238CF031E1389FB00137
S1130740399F700D112482819381DB01A80FB91F99
S1130750AA0FBB1FA659BD4F2D923C9236964E163A
S11307605F0619F7DACF80916802909169029A8343
S11307708983ACEAB4E06AE672E053019BEDA91AFE
S11307809EEFB90AAA0CBB1CF501EE59FD4F7F017F
S11307908D0111961C921E9289819A811816190650
S11307A09CF40197FB0140E050E021913191082E27
S11307B002C0220F331F0A94E2F7422B532B0197F6
S11307C0A0F7F8015183408312966E5D7F4FAE15FA
S11307D0BF05F1F6E0906402F0906502C0906802F3
S11307E0D090690287010C191D09A0ECB4E0B8018E
S11307F0660F771F66597D4F95012A583D4F590161
S1130800BA83A98311961C921E920E151F05B4F487
S1130810C6010197FB0140E050E021913191082E7F
S113082002C0220F331F0A94E2F7422B532B019785
S1130830A0F789819A81FC015183408312966E5DF1
S11308407F4FAA15BB05E1F69401261937093A83AF
S11308502983281539050CF09AC08091680290917B
S113086069029A878987730197ECE91A9EEFF90A5E
S1130870D901AE0DBF1DA819B909AA0FBB1FAE59E6
S1130880BD4FE2E2E29FB001E39F700D112466596F
S11308907D4F9701220F331F3E832D832E593D4FE9
S11308A079018D0111961C921E92E985FA851E1616
S11308B01F06A4F4CF010197FB0140E050E0219111
S11308C03191082E02C0220F331F0A94E2F7422B03
S11308D0532B0197A0F7F8015183408312966E5D64
S11308E07F4FAE15BF05E9F6C0906402D090650253
S11308F0A0906802B090690286010A191B09FDEBF9
S11309006F1AFEEF7F0A29813A81620E731ED301AA
S1130910A819B909AA0FBB1FAE59BD4FE1E1C9011E
S1130920E89F9001E99F300D1124C8010496B90194
S1130930680F791F660F771F6E597D4F2D813E8199
S11309402A583D4F7901BA83A98311961C921E92AD
S11309500C151D05B4F4C5010197FB0140E050E0FE
S113096021913191082E02C0220F331F0A94E2F71D
S1130970422B532B0197A0F789819A81FC01518363
S1130980408312966E5D7F4FAE15BF05E1F62CEAEB
S113099034E011E03A832983E980FA80D701DC96B8
S11309A06C91812F0E947F00E981FA8160A5812FDB
S11309B00E947F00A981BA8154966C91812F0E9474
S11309C07F00F7016081E981FA813296FA83E98335
S11309D0812F0E947F000E9489001F5F1930E1F679
S11309E0F1E0F98360E089810E945F0029812F5F33
S11309F029832930B9F781EE94E00197F1F700C01B
S1130A000000DA989F812885A0CCE6E0F5E08DCE41
S1130A101F920F920FB60F9211248F939F93809180
S1130A20340590913505892B51F48EB581608EBDC6
S1130A3081E090E090933505809334050DC01EBC91
S1130A408CB59DB590933705809336051DBC1CBCB1
S1130A5010923505109234059F918F910F900FBE1F
S1130A600F901F901895ECE2F5E0118210828FE050
S1130A7090E0938382831582148297838683E6E2CF
S1130A80F5E027E030E03183208345E050E05383F4
S1130A90428395838483ECEFF4E080E190E09183DA
S1130AA08083338322832FEF3FEF358324831782A0
S1130AB01682E2E6F2E0918380839383828388E066
S1130AC090E095838483978386832AE632E04AE81C
S1130AD054E0C9018096F90111921192E817F907BF
S1130AE0D9F72E5D3F4F2417350799F70895EE0F78
S1110AF0FF1F0590F491E02D0994F894FFCFB8
S1130AFE01010100010001000100010001000100DB
S1130B0E01000100010001000100010001000100CB
S1130B1E01000000010001000100010001000100BC
S1130B2E01000100010001000100010001000100AB
S1130B3E000000000000010001000100010001009E
S1130B4E010001000100010001000100010000008C
S1130B5E000000000000000001000100010001007F
S1130B6E010001000100010001000100000000006D
S1130B7E000001000000000000000100010001005F
S1130B8E010001000100010001000000000000004E
S1130B9E010000000100000000000000010001003F
S1130BAE010001000100010000000000000001002E
S1130BBE0000000000000100000000000000010021
S1130BCE010001000100000000000000010000000F
S1130BDE0000000000000000010000000000000002
S1130BEE00000000000000000000010000000000F2
S1130BFE00000000000000000000000000000000E3
S1130C0E00000000000000000000000000000000D2
S1130C1E00000000000000000000000000000000C2
S1130C2E00000000000000000000000000000000B2
S1130C3E00000000000000000000000000000000A2
S1130C4E0000000000000000000000000000000092
S1130C5E0000000000000000000000000000000082
S1130C6E0000000000000000000000000000000072
S1130C7E0000000000000000000000000000000062
S1130C8E0000000000000000000000000000000052
S1130C9E0000000000000000000000000000000042
S1130CAE0000000000000000000000000000000032
S1130CBE0000000000000000000000000000000022
S1130CCE0000000000000000000000000000000012
S1130CDE0000000000000000000000000000000002
S1130CEE00000000000000000000000000000000F2
S1050CFE0000F0
S9030000FC
