S01C000053696E676C655F6D61747269782841546D656C292E737265638E
S11300000C942A000C943F000C943F000C943F0085
S11300100C943F000C943F000C943F000C943F0060
S11300200C943F000C943F000C943F000C943F0050
S11300300C943F000C943F000C943F000C943F0040
S11300400C943F000C943F000C943F000C943F0030
S11300500C943F0011241FBECFE5D8E0DEBFCDBF16
S113006010E0A0E6B0E0EEE0F4E002C005900D92EE
S1130070A038B107D9F70E9468000C9405020C94CB
S113008000008FEF81BB87BB8AB38C7F8ABB8BB3A5
S113009083608BBB0895FC0120E030E061E070E0F8
S11300A0AB01022E02C0440F551F0A94E2F740959B
S11300B042BB8081329688BB89EF90E00197F1F7CB
S11300C000C000002F5F3F4F2830310549F70895E5
S11300D0CF93DF93CDB7DEB7E2970FB6F894DEBFC8
S11300E00FBECDBF0E944100FE01319680E1DF01C9
S11300F01D928A95E9F780E2E0E6F0E0DE01519690
S113010001900D928A95E1F789B3812C912C21E01D
S113011030E03AAB29AB44244A94542C0F2EF3E03C
S1130120CF2ED12CF02D0F2EF7E0EF2EF12CF02D49
S1130130AA24A394B12C6894662461F8712C01E07C
S113014010E00F2EFFE12F2E312CF02D19C080FD71
S113015006C0161417041CF431E0631A710881FDFB
S11301600AC083E0681671044CF49FEF691A790A97
S1130170A12CB12C05C0A12CB12C02C0A12CB12CF6
S1130180AFEF8A1A9A0ABFE08B1691040CF4C2C02E
S1130190E40CF51C29A93AA9C20ED31EC70106977F
S11301A00297C8F56C147D04C9F0C3010196C81602
S11301B0D906E1F00196C816D90601F10196C816D0
S11301C0D90611F10196C816D90629F581E090E007
S11301D09AAB89AB44244A94542C1DC0AFEFBFEFB3
S11301E0BAABA9AB44244A94542C15C02FEF3FEF6B
S11301F03AAB29AB44244A94542C0DC01AAA19AA28
S113020044244A94542C07C081E090E09AAB89AB13
S113021044244A94542CC114D10449F097E0C916DB
S1130220D10439F089A99AA98C0D9D1D03C0C6017A
S113023001C0C601A2E0EA16F10409F5B1E04B16CB
S1130240510409F447C00896FC01EE0FFF1F21E09A
S113025030E02C0F3D1FE20FF31F20893189232B3F
S1130260C9F1880F991FE1E0F0E0EC0FFD1FE80FE2
S1130270F91F118A108A5194419451082BC031E01E
S1130280E316F10409F5A1E04A16510409F4B5C0D6
S1130290FC01EE0FFF1F21E030E02C0F3D1FE20FA9
S11302A0F31F20893189232B09F4A7C0880F991FD4
S11302B0E1E0F0E0EC0FFD1FE80FF91F118A108A4E
S11302C051944194510899C01E141F041CF0519478
S11302D041945108C6010197069738F089A99AA953
S11302E09195819591099AAB89AB9FE0E916F10448
S11302F07CF05194419451086301A2E0CA0ED11CD0
S1130300812C912C0F2EF6E0EF2EF12CF02D02C053
S1130310812C912CFE01719680E090E040E050E049
S113032021913191232B49F09801082E02C0220F0C
S1130330331F0A94E2F7422B532B01968830910520
S113034079F75A834983FE01B19680E090E040E05A
S113035050E021913191232B49F09801082E02C0DD
S1130360220F331F0A94E2F7422B532B0196883055
S1130370910579F75C834B831E821D8218861F8248
S11303801A8619861C861B861E861D86C101062CAC
S113039002C0880F991F0A94E2F7988B8F87B8E000
S11303A0EB16F104B4F4F701EE0FFF1F21E030E087
S11303B02C0F3D1FE20FF31F20813181C8010C2C4B
S11303C002C0880F991F0A94E2F7822B932B918322
S11303D08083CE0101960E944B0081EE94E0019748
S11303E0F1F700C0000089B39FEFA91AB90AAFE082
S11303F0AA16B1040CF0ABCEC3CEC6010197069782
S111040008F06CCF812C912C85CFF894FFCF9F
S113040E01000100010001000100010001000100D2
S113041E01000100010001000100010001000100C2
S9030000FC
