:100000000C942B000C9453000C9453000C9453004C
:100010000C9453000C9453000C9453000C94530014
:100020000C9453000C9453000C9453000C94530004
:100030000C9453000C9453000C9453000C945300F4
:100040000C9453000C9453000C9453000C945300E4
:100050000C9453009B0C11241FBECFE5D8E0DEBFEB
:10006000CDBF10E0A0E6B0E0E2EAFFE102C00590FB
:100070000D92AA36B107D9F723E0AAE6B0E001C095
:100080001D92A334B207E1F710E0CBE2D0E004C048
:100090002197FE010E940A0FCA32D107C9F70E94B8
:1000A0007E080C94CF0F0C9400008FE493EC019722
:1000B000F1F700C0000098E088E10FB6F894A89529
:1000C00081BD0FBE91BDFFCFC4988FB9779BFECF86
:1000D0006FB9779BFECF8FB9779BFECF6FB9779BB8
:1000E000FECF8FB9779BFECF6FB9779BFECF8FB9CD
:1000F000779BFECF6FB9779BFECFC49A0895C498C3
:100100000895C49A089560E089E00E9464006FE059
:100110008AE00E94640067E08BE00E94640061E076
:100120008CE00E94640008958FEF81BB87BB1ABAF0
:100130008AB38C7E8ABB8AB38F738ABB8AB38C6284
:100140008ABB1BBA14BAA79A0895CF93DF9339B329
:10015000932F991F9927991F9093EE0229B381E05D
:10016000422F407426FF80E08093ED022091F00240
:1001700021114DC033230CF04AC02091F5022223F7
:10018000A9F02091FA02222359F02091FF022223A4
:1001900051F02091040321113AC023E030E008C05F
:1001A00021E030E005C022E030E002C020E030E095
:1001B000F901EE0FFF1FEE0FFF1FE20FF31FEF50CD
:1001C000FD4F60911B0370911C0371836083AFE04E
:1001D000B3E012966D917C911397772314F46F5FBF
:1001E0007F4F759567950D90BC91A02DED01C61BB5
:1001F000D70BD383C283F901EE0FFF1FEE0FFF1F52
:100200002E0F3F1FF901EF50FD4F21E02483209175
:10021000EF0221114BC0442309F448C02091F5029C
:100220002223A9F02091FA02222359F02091FF0203
:10023000222351F020910403211138C023E030E043
:1002400008C021E030E005C022E030E002C020E03C
:1002500030E0F901EE0FFF1FEE0FFF1FE20FF31F5B
:10026000EF50FD4F40911B0350911C03518340837D
:100270004091110350911203552314F44F5F5F4FC7
:100280005595479560910F0370911003460F571FC6
:1002900053834283F901EE0FFF1FEE0FFF1F2E0F56
:1002A0003F1FF901EF50FD4F21E024839093F002AE
:1002B0008093EF02E1EFF2E025E033E041E050E02F
:1002C0008481882309F43FC08081918101979183C3
:1002D0008083992314F4148236C0880F991FDC019F
:1002E000A35EBC4F8D919C91028002C0959587952D
:1002F0000A94E2F780FF27C0DA9A87EA91E601972D
:10030000F1F700C00000A081B181AA0FBB1FA35E5E
:10031000BC4FCA01028002C0880F991F0A94E2F7FD
:10032000809590956D917C911197862397238D935D
:100330009C9380913F0390914003019790934003D9
:1003400080933F0314823596E217F30709F0B8CF84
:10035000DF91CF9108958091EB029091EC02892B6F
:10036000C9F12091E7023091E80280911303909146
:1003700014032817390771F52091E9023091EA0238
:10038000EFE0F3E0408151818281938199230CF465
:10039000019695958795BA01681B790B2617370743
:1003A000CCF0840F951F82179307A4F0809168000A
:1003B0009091690001969093690080936800AF9ACC
:1003C00087EA91E60197F1F700C000001092EC0275
:1003D0001092EB020895CF93DF938091E502909104
:1003E000E60201969093E6028093E5022091EB02EB
:1003F0003091EC02232B39F4209168003091690090
:1004000023303105DCF01092E6021092E50219C0AB
:100410001092E6021092E502C7EED2E081E090E091
:100420009D838C83198218820E945C0F6EE070E0BD
:100430000E94E20E01969B838A8303C08C32914016
:1004400039F3DF91CF9108958091E3029091E40216
:1004500001969093E4028093E3020F97F4F0809169
:10046000EB029091EC02892BA1F0E7EEF2E08081A3
:10047000918101969183808320911B0330911C030D
:100480002B5F3F4F8217930724F01092EC021092DB
:10049000EB021092E4021092E30208957F928F9291
:1004A0009F92AF92BF92CF92DF92EF92FF920F9303
:1004B0001F93CF93DF93762EC0906A01D0906B018B
:1004C0001C141D040CF076C100916C0110916D019B
:1004D000482F592FC2E7D1E060E070E010161106F6
:1004E0004CF012C0E0906E01F0906F011E141F04DA
:1004F000A4F0B8C09801240F351FDE01FA018191E4
:100500008D93E217F307D9F76F5F7F4F405F5F4F1F
:1005100061966C157D0511F7E5CF609170017091C2
:1005200071014701880C991CD401A554BD4FC2E745
:10053000D1E00F2EFBEBAF2EF2E0BF2EF02D129785
:100540008D0111961C921E9216161706BCF4FE0120
:1005500040E050E020E030E0819190E0022E02C0C7
:10056000880F991F0A94E2F7482B592B2F5F3F4FB2
:100570002617370789F7F801518340836196AA153A
:10058000BB05E9F6EAE6F1E066817781D401A95579
:10059000BD4FC281D381C61BD70BCE58DE4F0F2E65
:1005A000F7EAAF2EF2E0BF2EF02D12978D011196D3
:1005B0001C921E9216161706BCF4FE0140E050E095
:1005C00020E030E0819190E0022E02C0880F991F58
:1005D0000A94E2F7482B592B2F5F3F4F2617370716
:1005E00089F7F801518340836196AA15BB05E9F6A6
:1005F0006091700170917101D701AA0FBB1FA153C7
:10060000BD4F81E18C9DE0018D9DD00D1124C60F61
:10061000D71FCF59DE4F00E010E012975D01119611
:100620001C921E9216161706BCF4FE0140E050E024
:1006300020E030E0829190E0022E02C0880F991FE6
:100640000A94E2F7482B592B2F5F3F4F26173707A5
:1006500089F7F501518340830F5F1F4F61970E1596
:100660001F05DCF2C6018E199F098C159D050CF043
:100670009BC0EAE6F1E0C281D38106811781BE0109
:10068000601B710BDC01AC19BD09AE0DBF1DAA0FBB
:10069000BB1FAD56BD4F21E1289F6001299FD00CA3
:1006A0001124CB018C0D9D1D9C012E583E4F6901DC
:1006B000C701880F991FFC01ED56FD4F5F017D01B9
:1006C00011961C921E926C177D07B4F4980121506C
:1006D0003109F60140E050E0819190E0022E02C025
:1006E000880F991F0A94E2F7482B592B21503109A2
:1006F00098F7F701518340831296F1E1CF0ED11C98
:10070000AA16BB06E1F650C00E947F00F80184AD36
:10071000CFB9779BFECF8FB9779BFECF80A5CFB99E
:10072000779BFECF8FB9779BFECF8489CFB9779B1C
:10073000FECF8FB9779BFECF0E5F1F4F8081CFB961
:10074000779BFECF8FB9779BFECF0E948100CF5F52
:10075000C930D1F6772019F0CC9BFECF29C02FE904
:1007600036E881E0215030408040E1F700C00000D1
:100770001FC060E08C2F0E946400CF5FC930C9F7B2
:100780009FE5AAEEB0E09150A040B040E1F700C074
:10079000000081E291E0E2E7F1E0DF019C011D92BF
:1007A00021503040E1F70FC003E912E0C1E0ACCFC7
:1007B000C1E0DFCFE0906E01F0906F011E141F04C6
:1007C0000CF4ABCE4FCFDF91CF911F910F91FF90E3
:1007D000EF90DF90CF90BF90AF909F908F907F90E1
:1007E00008958F929F92AF92BF92CF92DF92EF9235
:1007F000FF920F931F93CF93DF93E1EFF2E0148208
:1008000011861686138AC0914103D0914203CE010E
:1008100001969093420380934103209166003091AA
:10082000670033230CF492C12250310930936700E2
:10083000209366001092400310923F03823091058E
:1008400009F04EC0E0903F03F0904003CDE1D3E0CB
:10085000A12CB12C01E010E00F2EF3E0CF2ED12C13
:10086000F02D9501E0E0F0E0822F932F20FF05C0EE
:10087000B6010E94E20E892B81F4C8010E2E02C03F
:10088000880F991F0A94E2F78095909548815981C5
:10089000842395239983888310C048815981C80196
:1008A0000E2E02C0880F991F0A94E2F7842B952B15
:1008B000998388834FEFE41AF40A31962F5F3F4FF4
:1008C000E031F10589F68FEFA81AB80A229698E070
:1008D000A916B10431F6F0924003E0923F030BC138
:1008E0008130910509F04EC060913F037091400343
:1008F000EDE1F3E040E050E0A1E0B0E00FE010E017
:10090000C0E1D0E080E090E0481759073CF09E013C
:10091000281B390B421753073CF016C09801281BBF
:10092000390B4217530784F09D01082E02C0220F95
:10093000331F0A94E2F720953095E080F1802E2154
:100940003F21318320830FC0E080F1809D01082E7C
:1009500002C0220F331F0A94E2F72E293F29318368
:1009600020836F5F7F4F01968031910569F64F5F5D
:100970005F4F32964830510529F6709340036093DB
:100980003F03B9C0039709F03FC060913F037091E6
:100990004003EDE1F3E040E050E0A1E0B0E080E0B2
:1009A00090E09A01280F391F20FD10C0C081D1812D
:1009B0009D01082E02C0220F331F0A94E2F72C2B50
:1009C0003D2B318320836F5F7F4F0FC09D01082E29
:1009D00002C0220F331F0A94E2F720953095C081A0
:1009E000D1812C233D2331832083019680319105D1
:1009F000C1F64F5F5F4F32964830510581F67093D4
:100A0000400360933F0377C0BE0163507109072E16
:100A1000000C880B990B0E94C00D2DEC3CEC4CECAB
:100A20005DE30E94510E20E030E040E05FE30E9471
:100A3000E00C4B015C0126961C161D060CF05BC0F9
:100A40000DE113E0C12CD12CEE24E394F12CC0E095
:100A5000D0E00E945C0FBC01990F880B990B0E949B
:100A6000C00D20E03EEF4FEF56E40E944C0D9B017D
:100A7000AC01C501B4010E944C0E8823CCF0F801F2
:100A800020813181C7010C2E02C0880F991F0A9462
:100A9000E2F7822B932BF8019183808380913F03AF
:100AA0009091400301969093400380933F0310C0C0
:100AB000C7010C2E02C0880F991F0A94E2F7809597
:100AC0009095F80120813181822393239183808343
:100AD0002196C031D10509F0BCCFFFEFCF1ADF0A54
:100AE0000E5F1F4F80914103909142030596C816F7
:100AF000D9060CF4ACCFE5E1F3E0208131818281AD
:100B00009381820F931F99230CF4019695958795F5
:100B10009093100380930F03E7E0F3E020911B0311
:100B200030911C0331832083938382838FEF9FEF67
:100B300095838483178216822FE946E881E021504D
:100B400040408040E1F700C0000009C0109240031F
:100B500010923F038230910509F0C2CE73CEDF912F
:100B6000CF911F910F91FF90EF90DF90CF90BF90AA
:100B7000AF909F908F9008953F924F925F926F92A7
:100B80007F928F929F92AF92BF92CF92DF92EF921D
:100B9000FF920F931F93CF93DF93DD9A0E94F1038F
:100BA000E1EFF2E0148211861686138ACAE6D0E0DD
:100BB00000E011E0FE01C80111920197E9F733242A
:100BC000339439823A823B823D823E823F8238862C
:100BD0003A863B863C863D863E86388A3D8A3C8EF8
:100BE00038A23AA23BA23DA23EA23FA23CA638AA0E
:100BF0003BAA3DAA3CAE3092AB003092AC003092A2
:100C0000AD003092AF003092B000E1EBF0E0308206
:100C1000E2EBF0E030823092B6003092CA003092BF
:100C2000CB003092CC003092CD003092CF00309289
:100C3000D000E1EDF0E03082E2EDF0E03082309281
:100C4000D4003092D5003092D6003092D700309246
:100C5000D8003092DA003092DF003092E600309215
:100C6000EA003092EB003092EC003092ED00EFEEB3
:100C7000F0E03082E0EFF0E03082E1EFF0E030824F
:100C80003092F6003092FD00EFEFF0E030823092CB
:100C9000060130920A0130920B0130920C01309221
:100CA0000D01EFE0F1E03082E0E1F1E030820F2E63
:100CB000F1E14F2EF1E05F2EF02DF20130820F2E88
:100CC000F2E16F2EF1E07F2EF02DF30130823092B1
:100CD00016010F2EFEE28F2EF1E09F2EF02DF40173
:100CE00030820F2EFFE2AF2EF1E0BF2EF02DF50186
:100CF00030820F2EF0E3CF2EF1E0DF2EF02DF60143
:100D0000308230923301309234013092350130928A
:100D10003D01E2E4F1E030823092460130924D0133
:100D2000EFE4F1E03082E0E5F1E03082E2E5F1E08D
:100D300030823092560130925E0130925F013092E3
:100D4000600130926301309264013092650161E08C
:100D5000CE010E944E02FE01C80111920197E9F7EF
:100D60003D8A3E8A3F8A3CA23DA23EA23FA238A6CF
:100D70003CAA38AE39AE0F2EF3EBEF2EF0E0FF2E8B
:100D8000F02DF70130823092B400E3ECF0E03082D5
:100D90003092C400E2EDF0E030823092D300E0EE19
:100DA000F0E03082E1EEF0E03082E2EEF0E030821E
:100DB000E2EFF0E030823092F300309203013092A3
:100DC0000401E3E1F1E0308230921401EEE1F1E060
:100DD0003082E2E2F1E03082E3E2F1E03082F401DD
:100DE0003082F5013082F60130820F2EF1E3AF2E12
:100DF000F1E0BF2EF02DF50130820F2EF2E38F2EA1
:100E0000F1E09F2EF02DF4013082EFE3F1E030822B
:100E1000E0E4F1E03082E1E4F1E0308260E0CE0134
:100E20000E944E02FE01C80111920197E9F73E8A25
:100E30003F8A3DA23EA23FA238A63CAA3DAA38AEB8
:100E400039AEE2EBF0E03082F70130820F2EF2ECA7
:100E5000EF2EF0E0FF2EF02DF7013082E3ECF0E012
:100E60003082E1EDF0E03082E2EDF0E03082E0EE61
:100E7000F0E03082E1EEF0E03082EFEEF0E0308240
:100E8000E0EFF0E030823092FE00EFEFF0E03082F1
:100E900030920E01EFE0F1E03082E0E1F1E03082EB
:100EA000F2013082F3013082E3E1F1E03082EEE1E1
:100EB000F1E0308230921F01309220010F2EF1E2DA
:100EC000CF2EF1E0DF2EF02DF6013082E2E2F1E0EC
:100ED0003082E3E2F1E0308260E0CE010E944E0217
:100EE000FE01C80111920197E9F73F8A388E3EA2B0
:100EF0003FA238A63DAA3EAA3FAA38AEE1EBF0E0F9
:100F00003082E2EBF0E030823092C100F7013082B3
:100F1000E1EDF0E03082E2EDF0E03082E1EEF0E091
:100F20003082E2EEF0E03082E1EFF0E03082E2EF9A
:100F3000F0E030823092010130920201F201308201
:100F4000F3013082F6013082E2E2F1E03082F50115
:100F50003082F4013082EFE3F1E03082E0E4F1E04E
:100F60003082E1E4F1E03082E2E4F1E0308230927C
:100F7000430130924401EFE4F1E03082E0E5F1E03A
:100F8000308230925101E2E5F1E03082309253013B
:100F90003092540160E0CE010E944E02DF91CF9169
:100FA0001F910F91FF90EF90DF90CF90BF90AF9087
:100FB0009F908F907F906F905F904F903F9008959B
:100FC000EAE6F0E080E091E0DF019C011D92215013
:100FD0003040E1F781E0818B828B848B878B838F1C
:100FE000858F868F878F80A383A385A387A380A700
:100FF00082A783A785A780AB83AB84AB85AB87AB88
:1010000081AF83AF85AF86AF8093AA008093AC0099
:101010008093AD008093AF008093B1008093B500C2
:101020008093B7008093BB008093BC008093BD0089
:101030008093BF008093C1008093C5008093C70058
:101040008093C8008093C9008093FB008093FC00CC
:101050008093FF0080930201809303018093040139
:101060008093050180930701809308018093090113
:1010700080930A0180930D0180930F0180931201E8
:1010800080931301809317018093190180931A01B3
:1010900080931D0180931F0180932201809323017F
:1010A0008093240180932701809328018093290154
:1010B00080932A0180932D0180932F018093320128
:1010C00080933301809337018093380180933B01F3
:1010D00080933C01809340018093410180934301C0
:1010E0008093440180934501809347018093490197
:1010F00061E0CF010E944E020E945500CF93DF9322
:10110000CDB7DEB728970FB6F894DEBF0FBECDBFC0
:1011100084B7806884BF84B7806884BF0E949400CD
:1011200087B3806A87BB81E58DB9BC9AC49A0E9457
:1011300083000E94BC051D821C821E8290E00F2E3F
:10114000FFE02F2EF3E03F2EF02D0F2EF5E1CF2EF6
:10115000F3E0DF2EF02D88248394912C66246A948A
:10116000762C01C09B8139B329B389B341E04B830D
:10117000482F407184FF1B82911106C0442321F047
:1011800081E09E8198279E83AE81A111EBCF30FF35
:1011900018C0F101408151818281938199230CF41F
:1011A000019695958795BA01681B790BD6018D91AB
:1011B0009C91861797072CF441505109F1015183F6
:1011C000408321FF1AC0D1012D913C9111971296B5
:1011D0008D919C91139799230CF401969595879581
:1011E000820F931FF60142815381841795072CF4D7
:1011F0002F5F3F4FD1012D933C93EC81FD813196C0
:10120000FD83EC838091660090916700E817F907F1
:101210000CF41AC1A7E0B3E02D913C911197809195
:101220000B0390910C03820F931F8D939C9320913D
:10123000090330910A0380910D0390910E03820FF0
:10124000931F90930A03809309036091090370919F
:101250000A0380910D0390910E03AB01480F591FB3
:10126000E7E0F3E02081318180910B0390910C0342
:10127000820F931FD10114962D913C9115978217DF
:10128000930709F046C0ED91FC91119712962D91AC
:101290003C911397332314F42F5F3F4F35952795D7
:1012A000DF01A21BB30B4A175B0734F08F01020F5B
:1012B000131F0417150744F46A177B0754F12E0F08
:1012C0003F1F261737072CF16E177F074CF47092DB
:1012D0000C0360920B0370920E0360920D03B5CF66
:1012E0006E177F0749F470920C0360920B03109203
:1012F0000E0310920D03A9CFE617F7070CF0A5CF48
:1013000070920C0360920B0390920E0380920D0377
:101310009CCFF60124813581821793072CF490929B
:101320000C0380920B0391CF208131814217530728
:101330002CF490920E0380920D0387CFF601228148
:101340003381241735072CF470920E0360920D033D
:101350007CCF80319105A0F54031510508F4C7C21A
:101360002FC0DA9AA7EAB1E61197F1F700C00000A2
:10137000880F991FFC01E35EFC4FC40102C0880F77
:10138000991F4A95E2F780959095208131818223BB
:1013900093239183808380913F0390914003019731
:1013A0009093400380933F0380910B0390910C0333
:1013B00091958195910990930C0380930B0345CFF0
:1013C00080913F0390914003892B11F40E94F10317
:1013D000E7E0F3E020813181D60116968D919C9152
:1013E00017978217930774F5DB9AE7EAF1E63197CE
:1013F000F1F700C0000080916800909169000097AB
:10140000F9F00197909369008093680016968D918A
:101410009C911797E7E0F3E091838083D1018D9150
:101420009C9190930A038093090370920C0360923D
:101430000B0310920E0310920D031D821C8204C038
:101440000E94E0071D821C82809105039091060393
:1014500001969093060380930503209164003091D8
:1014600065008217930734F00E94A50010920603CE
:10147000109205030E94EB010E94AB010E9424021E
:10148000EAE6F1E00190F081E02DFA83E9831E168F
:101490001F065CF540916C0150916D0102E711E06F
:1014A000ADE1B3E0CF01880F991F9C01235E3C4F53
:1014B0007901141615069CF46D917C911197F80131
:1014C00080E090E09B01082E02C0359527950A9494
:1014D000E2F72170219301968417950799F70F5E23
:1014E0001F4F1296AE15BF0521F7D1012D913C91EA
:1014F000119712968D919C91139799230CF4019654
:10150000AC0155954795C901841B950B420F531F9C
:1015100048175907A4F0F10164817581E1E1E69F64
:101520009001E79F300D1124280F391FF901EE5863
:10153000FE4F21E02193019648175907DCF7A7E0F9
:10154000B3E08D919C91F601468157814817590768
:101550000CF4DDC121E1289FF001299FF00D112439
:10156000E659FE4F8091090390910A03E80FF91F95
:1015700081E08087CCC18481882399F0808191812A
:1015800099237CF0789FD001799FB00D11248D01B3
:1015900006591E4F82819381D801A80FB91F189652
:1015A0006C93359623E0E530F20729F78091EB0242
:1015B0009091EC02892B09F4B5C1A7EEB2E08D91B0
:1015C0009C919923A4F0481759078CF021E1289F9A
:1015D000B001299F700D112466597E4F2091E902B8
:1015E0003091EA02FB01E20FF31F61E060879C018A
:1015F00021503109AAF04217530794F06091E90293
:101600007091EA02A1E1A29FF001A39FF00D1124C5
:10161000E659FE4FE60FF71F21E020872783218739
:1016200002979AF04817590784F021E1289FF001AA
:10163000299FF00D1124E659FE4F8091E902909107
:10164000EA02E80FF91F81E0808740906E01509018
:101650006F01141415040CF0BDC0609170017091FD
:101660007101F201EE0FFF1FF887EF83DF01A55430
:10167000BD4F0F2EF2E7EF2EF1E0FF2EF02D0F2ED3
:10168000FBEBAF2EF2E0BF2EF02D12978D011196DD
:101690001C921E9216161706BCF4F70140E050E0AB
:1016A00020E030E0819190E0022E02C0880F991F67
:1016B0000A94E2F7482B592B2F5F3F4F2617370725
:1016C00089F7F80151834083F1E1EF0EF11CAA156F
:1016D000BB05D9F66091700170917101AF81B88539
:1016E000A955BD4FE0906C01F0906D01C701861BBC
:1016F000970B9C012E583E4F79010F2EF7EAAF2E23
:10170000F2E0BF2EF02D12978D0111961C921E92C1
:1017100016161706BCF4F70140E050E020E030E078
:10172000819190E0022E02C0880F991F0A94E2F77F
:10173000482B592B2F5F3F4F2617370789F7F801A2
:1017400051834083F1E1EF0EF11CAA15BB05D9F6D8
:101750006091700170917101D201AA0FBB1FA1535A
:10176000BD4F81E129813A81829F5001839FB00C56
:101770001124CB018A0D9B1DFC01EF59FE4F5F0127
:10178000E12CF12C12978D0111961C921E921616C7
:101790001706BCF4F50140E050E020E030E0829113
:1017A00090E0022E02C0880F991F0A94E2F7482B9E
:1017B000592B2F5F3F4F2617370789F7F8015183C1
:1017C0004083FFEFEF1AFF0A21E1A21AB108E414E7
:1017D000F504C4F289819A8184199509A981BA8195
:1017E0008A179B070CF098C0A0906C01B0906D0117
:1017F000E0907001F090710185010E191F09DC0164
:10180000E981FA81AE1BBF0BA40DB51DAA0FBB1F4A
:10181000AD56BD4F21E1289FB001299F700D1124C5
:10182000600F711F6E587E4FC201880F991F8D5631
:101830009D4F2C01BA83A98311961C921E920A1502
:101840001B05BCF4970121503109FB0140E050E039
:10185000819190E0022E02C0880F991F0A94E2F74E
:10186000482B592B2150310998F7E981FA8151838E
:10187000408312966F5E7F4FA415B505D9F64CC014
:101880000E947F00F80184AD29812FB9779BFECF9C
:101890008FB9779BFECF80A539813FB9779BFECF6B
:1018A0008FB9779BFECF848949814FB9779BFECF53
:1018B0008FB9779BFECF0E5F1F4F808199819FB9B3
:1018C000779BFECF8FB9779BFECF0E948100A981C5
:1018D000AF5FA983A930A1F6DA98DB98DD98AF98BD
:1018E000E3ECF9E03197F1F700C000003BCCFC01DC
:1018F000EE0FFF1FE35EFC4F20813181042E02C0FA
:10190000359527950A94E2F720FD2BCD59CDE1EFCF
:10191000F2E071E161E02FCE03E912E0FF24F394DD
:10192000F982AECF40906E0150906F0114141504EF
:101930000CF493CE4FCFEDE1F3E082E2DF011D9294
:101940008A95E9F7E5E1F3E0118210828FE090E0FB
:10195000938382831582148297838683EFE0F3E07A
:1019600025E030E0338322839583848327E030E0D1
:1019700031832083E7E0F3E0918380833383228304
:101980008FEF9FEF9583848317821682EAE6F1E05A
:1019900080E190E0918380839383828388E090E06C
:1019A000958384839783868381E291E0E2E7F1E087
:1019B000DF019C011D9221503040E1F708955058FD
:1019C000BB27AA270E94F70C0C94120E0E94040E4B
:1019D00038F00E940B0E20F039F49F3F19F426F4E2
:1019E0000C94010E0EF4E095E7FB0C94FB0DE92F2F
:1019F0000E94230E58F3BA176207730784079507EE
:101A000020F079F4A6F50C94450E0EF4E0950B2E1B
:101A1000BA2FA02D0B01B90190010C01CA01A00140
:101A20001124FF27591B99F0593F50F4503E68F19B
:101A30001A16F040A22F232F342F4427585FF3CFDC
:101A4000469537952795A795F0405395C9F77EF4AD
:101A50001F16BA0B620B730B840BBAF09150A1F0F6
:101A6000FF0FBB1F661F771F881FC2F70EC0BA0F7C
:101A7000621F731F841F48F4879577956795B79504
:101A8000F7959E3F08F0B0CF9395880F08F09927FF
:101A9000EE0F9795879508950E94600D0C94120E95
:101AA0000E940B0E58F00E94040E40F029F45F3F94
:101AB00029F00C94FB0D51110C94460E0C94010E60
:101AC0000E94230E68F39923B1F3552391F3951BDC
:101AD000550BBB27AA2762177307840738F09F5F4F
:101AE0005F4F220F331F441FAA1FA9F335D00E2EBC
:101AF0003AF0E0E832D091505040E695001CCAF729
:101B00002BD0FE2F29D0660F771F881FBB1F2617EB
:101B100037074807AB07B0E809F0BB0B802DBF01C2
:101B2000FF2793585F4F3AF09E3F510578F00C9491
:101B3000FB0D0C94460E5F3FE4F3983ED4F386957C
:101B400077956795B795F7959F5FC9F7880F911DB2
:101B50009695879597F90895E1E0660F771F881F9E
:101B6000BB1F621773078407BA0720F0621B730B51
:101B7000840BBA0BEE1F88F7E0950895E89409C02E
:101B800097FB3EF490958095709561957F4F8F4FB0
:101B90009F4F9923A9F0F92F96E9BB279395F695C6
:101BA000879577956795B795F111F8CFFAF4BB0F44
:101BB00011F460FF1BC06F5F7F4F8F4F9F4F16C0A8
:101BC000882311F096E911C0772321F09EE8872F32
:101BD000762F05C0662371F096E8862F70E060E0EE
:101BE0002AF09A95660F771F881FDAF7880F969567
:101BF000879597F9089597F99F6780E870E060E00E
:101C000008959FEF80EC089500240A941616170695
:101C100018060906089500240A94121613061406DD
:101C200005060895092E0394000C11F4882352F040
:101C3000BB0F40F4BF2B11F460FF04C06F5F7F4FF8
:101C40008F4F9F4F089557FD9058440F551F59F0DF
:101C50005F3F71F04795880F97FB991F61F09F3F99
:101C600079F087950895121613061406551FF2CFC2
:101C70004695F1DF08C0161617061806991FF1CF12
:101C800086957105610508940895E894BB27662739
:101C90007727CB0197F908950E94BE0E08F48FEFC5
:101CA00008950E94640E0C94120E0E94040E38F0E7
:101CB0000E940B0E20F0952311F00C94FB0D0C9458
:101CC000010E11240C94460E0E94230E70F3959F72
:101CD000C1F3950F50E0551F629FF001729FBB2723
:101CE000F00DB11D639FAA27F00DB11DAA1F649FBF
:101CF0006627B00DA11D661F829F2227B00DA11D72
:101D0000621F739FB00DA11D621F839FA00D611DF7
:101D1000221F749F3327A00D611D231F849F600D18
:101D2000211D822F762F6A2F11249F5750409AF041
:101D3000F1F088234AF0EE0FFF1FBB1F661F771FCD
:101D4000881F91505040A9F79E3F510580F00C9498
:101D5000FB0D0C94460E5F3FE4F3983ED4F386955A
:101D600077956795B795F795E7959F5FC1F7FE2B38
:101D7000880F911D9695879597F90895990F0008FA
:101D8000550FAA0BE0E8FEEF16161706E807F9074D
:101D9000C0F012161306E407F50798F0621B730BE8
:101DA000840B950B39F40A2661F0232B242B252B69
:101DB00021F408950A2609F4A140A6958FEF811D0C
:101DC000811D089597FB072E16F4009407D077FD28
:101DD00009D00E94F60E07FC05D03EF4909581953F
:101DE0009F4F0895709561957F4F0895AA1BBB1B67
:101DF00051E107C0AA1FBB1FA617B70710F0A61B0B
:101E0000B70B881F991F5A95A9F780959095BC012B
:101E1000CD010895EE0FFF1F0590F491E02D099478
:101E20008F929F92AF92BF92CF92DF92EF92FF92EA
:101E3000CF93DF93EC01688179818A819B81611561
:101E400071058105910521F464E279ED8BE597E058
:101E50002DE133EF41E050E00E946C0F49015A013F
:101E60009B01AC01A7EAB1E40E948B0F6B017C01DE
:101E7000ACEEB4EFA50194010E94990FDC01CB01F7
:101E80008C0D9D1DAE1DBF1DB7FF03C00197A1099D
:101E9000B04888839983AA83BB839F77DF91CF91D2
:101EA000FF90EF90DF90CF90BF90AF909F908F907A
:101EB00008950E94100F089580E690E00E94100F90
:101EC0000895A0E0B0E08093600090936100A0933B
:101ED0006200B09363000895052E97FB1EF40094F2
:101EE0000E94830F57FD07D00E949E0F07FC03D06E
:101EF0004EF40C94830F50954095309521953F4FAB
:101F00004F4F5F4F089590958095709561957F4FE5
:101F10008F4F9F4F08950E94C00FA59F900DB49FB3
:101F2000900DA49F800D911D11240895B7FF0C946E
:101F30008B0F0E948B0F821B930B0895A1E21A2E28
:101F4000AA1BBB1BFD010DC0AA1FBB1FEE1FFF1F5D
:101F5000A217B307E407F50720F0A21BB30BE40BAD
:101F6000F50B661F771F881F991F1A9469F76095F4
:101F70007095809590959B01AC01BD01CF010895AE
:101F8000A29FB001B39FC001A39F700D811D1124BA
:101F9000911DB29F700D811D1124911D0895F8941B
:021FA000FFCF71
:0A1FA2000100000003000800030026
:00000001FF
